{
  "contractName": "AuthChain",
  "abi": [
    {
      "anonymous": false,
      "inputs": [
        {
          "indexed": true,
          "internalType": "string",
          "name": "id",
          "type": "string"
        },
        {
          "indexed": true,
          "internalType": "address",
          "name": "owner",
          "type": "address"
        }
      ],
      "name": "AssetRegistered",
      "type": "event"
    },
    {
      "anonymous": false,
      "inputs": [
        {
          "indexed": true,
          "internalType": "string",
          "name": "id",
          "type": "string"
        },
        {
          "indexed": false,
          "internalType": "string",
          "name": "status",
          "type": "string"
        }
      ],
      "name": "AssetStatusChanged",
      "type": "event"
    },
    {
      "anonymous": false,
      "inputs": [
        {
          "indexed": true,
          "internalType": "string",
          "name": "id",
          "type": "string"
        },
        {
          "indexed": true,
          "internalType": "address",
          "name": "from",
          "type": "address"
        },
        {
          "indexed": true,
          "internalType": "address",
          "name": "to",
          "type": "address"
        },
        {
          "indexed": false,
          "internalType": "uint256",
          "name": "timestamp",
          "type": "uint256"
        }
      ],
      "name": "AssetTransfer",
      "type": "event"
    },
    {
      "inputs": [
        {
          "internalType": "uint256",
          "name": "",
          "type": "uint256"
        }
      ],
      "name": "assetIds",
      "outputs": [
        {
          "internalType": "string",
          "name": "",
          "type": "string"
        }
      ],
      "stateMutability": "view",
      "type": "function"
    },
    {
      "inputs": [
        {
          "internalType": "string",
          "name": "",
          "type": "string"
        }
      ],
      "name": "assets",
      "outputs": [
        {
          "internalType": "string",
          "name": "id",
          "type": "string"
        },
        {
          "internalType": "string",
          "name": "description",
          "type": "string"
        },
        {
          "internalType": "string",
          "name": "status",
          "type": "string"
        },
        {
          "internalType": "address",
          "name": "owner",
          "type": "address"
        },
        {
          "internalType": "uint256",
          "name": "registeredAt",
          "type": "uint256"
        },
        {
          "internalType": "bool",
          "name": "exists",
          "type": "bool"
        },
        {
          "internalType": "string",
          "name": "category",
          "type": "string"
        },
        {
          "internalType": "string",
          "name": "proofHash",
          "type": "string"
        },
        {
          "internalType": "string",
          "name": "imageUrl",
          "type": "string"
        }
      ],
      "stateMutability": "view",
      "type": "function"
    },
    {
      "inputs": [
        {
          "internalType": "address",
          "name": "",
          "type": "address"
        }
      ],
      "name": "users",
      "outputs": [
        {
          "internalType": "string",
          "name": "publicKey",
          "type": "string"
        },
        {
          "internalType": "bool",
          "name": "isActive",
          "type": "bool"
        }
      ],
      "stateMutability": "view",
      "type": "function"
    },
    {
      "inputs": [
        {
          "internalType": "string",
          "name": "_publicKey",
          "type": "string"
        }
      ],
      "name": "registerUser",
      "outputs": [],
      "stateMutability": "nonpayable",
      "type": "function"
    },
    {
      "inputs": [],
      "name": "revokeUser",
      "outputs": [],
      "stateMutability": "nonpayable",
      "type": "function"
    },
    {
      "inputs": [
        {
          "internalType": "address",
          "name": "_user",
          "type": "address"
        }
      ],
      "name": "getPublicKey",
      "outputs": [
        {
          "internalType": "string",
          "name": "",
          "type": "string"
        }
      ],
      "stateMutability": "view",
      "type": "function"
    },
    {
      "inputs": [
        {
          "internalType": "address",
          "name": "_user",
          "type": "address"
        }
      ],
      "name": "isUserActive",
      "outputs": [
        {
          "internalType": "bool",
          "name": "",
          "type": "bool"
        }
      ],
      "stateMutability": "view",
      "type": "function"
    },
    {
      "inputs": [
        {
          "internalType": "string",
          "name": "_id",
          "type": "string"
        },
        {
          "internalType": "string",
          "name": "_desc",
          "type": "string"
        },
        {
          "internalType": "string",
          "name": "_category",
          "type": "string"
        },
        {
          "internalType": "string",
          "name": "_proofHash",
          "type": "string"
        },
        {
          "internalType": "string",
          "name": "_imageUrl",
          "type": "string"
        },
        {
          "internalType": "address",
          "name": "_owner",
          "type": "address"
        }
      ],
      "name": "registerAsset",
      "outputs": [],
      "stateMutability": "nonpayable",
      "type": "function"
    },
    {
      "inputs": [
        {
          "internalType": "string",
          "name": "_id",
          "type": "string"
        },
        {
          "internalType": "string",
          "name": "_status",
          "type": "string"
        }
      ],
      "name": "setAssetStatus",
      "outputs": [],
      "stateMutability": "nonpayable",
      "type": "function"
    },
    {
      "inputs": [
        {
          "internalType": "string",
          "name": "_id",
          "type": "string"
        },
        {
          "internalType": "address",
          "name": "_newOwner",
          "type": "address"
        }
      ],
      "name": "transferAsset",
      "outputs": [],
      "stateMutability": "nonpayable",
      "type": "function"
    },
    {
      "inputs": [
        {
          "internalType": "string",
          "name": "_id",
          "type": "string"
        }
      ],
      "name": "getAsset",
      "outputs": [
        {
          "internalType": "string",
          "name": "id",
          "type": "string"
        },
        {
          "internalType": "string",
          "name": "description",
          "type": "string"
        },
        {
          "internalType": "string",
          "name": "status",
          "type": "string"
        },
        {
          "internalType": "address",
          "name": "owner",
          "type": "address"
        },
        {
          "internalType": "uint256",
          "name": "registeredAt",
          "type": "uint256"
        },
        {
          "internalType": "string",
          "name": "category",
          "type": "string"
        },
        {
          "internalType": "string",
          "name": "proofHash",
          "type": "string"
        },
        {
          "internalType": "string",
          "name": "imageUrl",
          "type": "string"
        }
      ],
      "stateMutability": "view",
      "type": "function"
    },
    {
      "inputs": [],
      "name": "getAssetCount",
      "outputs": [
        {
          "internalType": "uint256",
          "name": "",
          "type": "uint256"
        }
      ],
      "stateMutability": "view",
      "type": "function"
    }
  ],
  "bytecode": "0x608060405234801561001057600080fd5b506123e6806100206000396000f3fe608060405234801561001057600080fd5b50600436106100b45760003560e01c8063a87430ba11610071578063a87430ba146101bb578063bb19d45a146101ec578063bb22bec014610208578063bc9da48814610224578063c2029ba51461022e578063cd5286d01461024a576100b4565b8063704f1b94146100b9578063857cdbb8146100d5578063859362281461010557806387541ed61461013d5780639ee20b151461016d578063a0aead4d1461019d575b600080fd5b6100d360048036038101906100ce91906117e8565b610281565b005b6100ef60048036038101906100ea919061188f565b6103a2565b6040516100fc919061193b565b60405180910390f35b61011f600480360381019061011a91906117e8565b610475565b604051610134999897969594939291906119a0565b60405180910390f35b61015760048036038101906101529190611a83565b610836565b604051610164919061193b565b60405180910390f35b6101876004803603810190610182919061188f565b6108e2565b6040516101949190611ab0565b60405180910390f35b6101a561093a565b6040516101b29190611acb565b60405180910390f35b6101d560048036038101906101d0919061188f565b610947565b6040516101e3929190611ae6565b60405180910390f35b61020660048036038101906102019190611b16565b610a00565b005b610222600480360381019061021d9190611c2f565b610d26565b005b61022c610eba565b005b61024860048036038101906102439190611c8b565b610fa4565b005b610264600480360381019061025f91906117e8565b6111b9565b604051610278989796959493929190611d03565b60405180910390f35b6000803373ffffffffffffffffffffffffffffffffffffffff1673ffffffffffffffffffffffffffffffffffffffff16815260200190815260200160002060010160009054906101000a900460ff1615610310576040517f08c379a000000000000000000000000000000000000000000000000000000000815260040161030790611e1d565b60405180910390fd5b6040518060400160405280828152602001600115158152506000803373ffffffffffffffffffffffffffffffffffffffff1673ffffffffffffffffffffffffffffffffffffffff168152602001908152602001600020600082015181600001908161037b9190612049565b5060208201518160010160006101000a81548160ff02191690831515021790555090505050565b60606000808373ffffffffffffffffffffffffffffffffffffffff1673ffffffffffffffffffffffffffffffffffffffff16815260200190815260200160002060000180546103f090611e6c565b80601f016020809104026020016040519081016040528092919081815260200182805461041c90611e6c565b80156104695780601f1061043e57610100808354040283529160200191610469565b820191906000526020600020905b81548152906001019060200180831161044c57829003601f168201915b50505050509050919050565b6001818051602081018201805184825260208301602085012081835280955050505050506000915090508060000180546104ae90611e6c565b80601f01602080910402602001604051908101604052809291908181526020018280546104da90611e6c565b80156105275780601f106104fc57610100808354040283529160200191610527565b820191906000526020600020905b81548152906001019060200180831161050a57829003601f168201915b50505050509080600101805461053c90611e6c565b80601f016020809104026020016040519081016040528092919081815260200182805461056890611e6c565b80156105b55780601f1061058a576101008083540402835291602001916105b5565b820191906000526020600020905b81548152906001019060200180831161059857829003601f168201915b5050505050908060020180546105ca90611e6c565b80601f01602080910402602001604051908101604052809291908181526020018280546105f690611e6c565b80156106435780601f1061061857610100808354040283529160200191610643565b820191906000526020600020905b81548152906001019060200180831161062657829003601f168201915b5050505050908060030160009054906101000a900473ffffffffffffffffffffffffffffffffffffffff16908060040154908060050160009054906101000a900460ff169080600601805461069790611e6c565b80601f01602080910402602001604051908101604052809291908181526020018280546106c390611e6c565b80156107105780601f106106e557610100808354040283529160200191610710565b820191906000526020600020905b8154815290600101906020018083116106f357829003601f168201915b50505050509080600701805461072590611e6c565b80601f016020809104026020016040519081016040528092919081815260200182805461075190611e6c565b801561079e5780601f106107735761010080835404028352916020019161079e565b820191906000526020600020905b81548152906001019060200180831161078157829003601f168201915b5050505050908060080180546107b390611e6c565b80601f01602080910402602001604051908101604052809291908181526020018280546107df90611e6c565b801561082c5780601f106108015761010080835404028352916020019161082c565b820191906000526020600020905b81548152906001019060200180831161080f57829003601f168201915b5050505050905089565b6002818154811061084657600080fd5b90600052602060002001600091509050805461086190611e6c565b80601f016020809104026020016040519081016040528092919081815260200182805461088d90611e6c565b80156108da5780601f106108af576101008083540402835291602001916108da565b820191906000526020600020905b8154815290600101906020018083116108bd57829003601f168201915b505050505081565b60008060008373ffffffffffffffffffffffffffffffffffffffff1673ffffffffffffffffffffffffffffffffffffffff16815260200190815260200160002060010160009054906101000a900460ff169050919050565b6000600280549050905090565b600060205280600052604060002060009150905080600001805461096a90611e6c565b80601f016020809104026020016040519081016040528092919081815260200182805461099690611e6c565b80156109e35780601f106109b8576101008083540402835291602001916109e3565b820191906000526020600020905b8154815290600101906020018083116109c657829003601f168201915b5050505050908060010160009054906101000a900460ff16905082565b600186604051610a109190612157565b908152602001604051809103902060050160009054906101000a900460ff1615610a6f576040517f08c379a0000000000000000000000000000000000000000000000000000000008152600401610a66906121ba565b60405180910390fd5b6040518061012001604052808781526020018681526020016040518060400160405280600581526020017f434c45414e00000000000000000000000000000000000000000000000000000081525081526020018273ffffffffffffffffffffffffffffffffffffffff16815260200142815260200160011515815260200185815260200184815260200183815250600187604051610b0d9190612157565b90815260200160405180910390206000820151816000019081610b309190612049565b506020820151816001019081610b469190612049565b506040820151816002019081610b5c9190612049565b5060608201518160030160006101000a81548173ffffffffffffffffffffffffffffffffffffffff021916908373ffffffffffffffffffffffffffffffffffffffff1602179055506080820151816004015560a08201518160050160006101000a81548160ff02191690831515021790555060c0820151816006019081610be39190612049565b5060e0820151816007019081610bf99190612049565b50610100820151816008019081610c109190612049565b50905050600286908060018154018082558091505060019003906000526020600020016000909190919091509081610c489190612049565b508073ffffffffffffffffffffffffffffffffffffffff1686604051610c6e9190612157565b60405180910390207f3660b9d6c78cc82ab7177ce73afc0d18a4445a81493b7f4457bf837ccf6ede8e60405160405180910390a38073ffffffffffffffffffffffffffffffffffffffff16600073ffffffffffffffffffffffffffffffffffffffff1687604051610cdf9190612157565b60405180910390207fe95ca4cf45cbf558e05e8b7e80113825816d60e427d27ffb14bf187e6175282c42604051610d169190611acb565b60405180910390a4505050505050565b600182604051610d369190612157565b908152602001604051809103902060050160009054906101000a900460ff16610d94576040517f08c379a0000000000000000000000000000000000000000000000000000000008152600401610d8b90612226565b60405180910390fd5b6000600183604051610da69190612157565b908152602001604051809103902060030160009054906101000a900473ffffffffffffffffffffffffffffffffffffffff16905081600184604051610deb9190612157565b908152602001604051809103902060030160006101000a81548173ffffffffffffffffffffffffffffffffffffffff021916908373ffffffffffffffffffffffffffffffffffffffff1602179055508173ffffffffffffffffffffffffffffffffffffffff168173ffffffffffffffffffffffffffffffffffffffff1684604051610e769190612157565b60405180910390207fe95ca4cf45cbf558e05e8b7e80113825816d60e427d27ffb14bf187e6175282c42604051610ead9190611acb565b60405180910390a4505050565b6000803373ffffffffffffffffffffffffffffffffffffffff1673ffffffffffffffffffffffffffffffffffffffff16815260200190815260200160002060010160009054906101000a900460ff16610f48576040517f08c379a0000000000000000000000000000000000000000000000000000000008152600401610f3f906122b8565b60405180910390fd5b60008060003373ffffffffffffffffffffffffffffffffffffffff1673ffffffffffffffffffffffffffffffffffffffff16815260200190815260200160002060010160006101000a81548160ff021916908315150217905550565b600182604051610fb49190612157565b908152602001604051809103902060050160009054906101000a900460ff16611012576040517f08c379a000000000000000000000000000000000000000000000000000000000815260040161100990612226565b60405180910390fd5b3373ffffffffffffffffffffffffffffffffffffffff166001836040516110399190612157565b908152602001604051809103902060030160009054906101000a900473ffffffffffffffffffffffffffffffffffffffff1673ffffffffffffffffffffffffffffffffffffffff1614806110fa5750600073ffffffffffffffffffffffffffffffffffffffff166001836040516110b09190612157565b908152602001604051809103902060030160009054906101000a900473ffffffffffffffffffffffffffffffffffffffff1673ffffffffffffffffffffffffffffffffffffffff16145b611139576040517f08c379a000000000000000000000000000000000000000000000000000000000815260040161113090612324565b60405180910390fd5b8060018360405161114a9190612157565b908152602001604051809103902060020190816111679190612049565b50816040516111769190612157565b60405180910390207f197065f8f8d3d7da508ecf0f6eeee18b15f948d76810703bb29b2d3b555a8f05826040516111ad919061193b565b60405180910390a25050565b606080606060008060608060606001896040516111d69190612157565b908152602001604051809103902060050160009054906101000a900460ff16611234576040517f08c379a000000000000000000000000000000000000000000000000000000000815260040161122b90612390565b60405180910390fd5b600060018a6040516112469190612157565b90815260200160405180910390206040518061012001604052908160008201805461127090611e6c565b80601f016020809104026020016040519081016040528092919081815260200182805461129c90611e6c565b80156112e95780601f106112be576101008083540402835291602001916112e9565b820191906000526020600020905b8154815290600101906020018083116112cc57829003601f168201915b5050505050815260200160018201805461130290611e6c565b80601f016020809104026020016040519081016040528092919081815260200182805461132e90611e6c565b801561137b5780601f106113505761010080835404028352916020019161137b565b820191906000526020600020905b81548152906001019060200180831161135e57829003601f168201915b5050505050815260200160028201805461139490611e6c565b80601f01602080910402602001604051908101604052809291908181526020018280546113c090611e6c565b801561140d5780601f106113e25761010080835404028352916020019161140d565b820191906000526020600020905b8154815290600101906020018083116113f057829003601f168201915b505050505081526020016003820160009054906101000a900473ffffffffffffffffffffffffffffffffffffffff1673ffffffffffffffffffffffffffffffffffffffff1673ffffffffffffffffffffffffffffffffffffffff168152602001600482015481526020016005820160009054906101000a900460ff161515151581526020016006820180546114a190611e6c565b80601f01602080910402602001604051908101604052809291908181526020018280546114cd90611e6c565b801561151a5780601f106114ef5761010080835404028352916020019161151a565b820191906000526020600020905b8154815290600101906020018083116114fd57829003601f168201915b5050505050815260200160078201805461153390611e6c565b80601f016020809104026020016040519081016040528092919081815260200182805461155f90611e6c565b80156115ac5780601f10611581576101008083540402835291602001916115ac565b820191906000526020600020905b81548152906001019060200180831161158f57829003601f168201915b505050505081526020016008820180546115c590611e6c565b80601f01602080910402602001604051908101604052809291908181526020018280546115f190611e6c565b801561163e5780601f106116135761010080835404028352916020019161163e565b820191906000526020600020905b81548152906001019060200180831161162157829003601f168201915b5050505050815250509050806000015181602001518260400151836060015184608001518560c001518660e001518761010001519850985098509850985098509850985050919395975091939597565b6000604051905090565b600080fd5b600080fd5b600080fd5b600080fd5b6000601f19601f8301169050919050565b7f4e487b7100000000000000000000000000000000000000000000000000000000600052604160045260246000fd5b6116f5826116ac565b810181811067ffffffffffffffff82111715611714576117136116bd565b5b80604052505050565b600061172761168e565b905061173382826116ec565b919050565b600067ffffffffffffffff821115611753576117526116bd565b5b61175c826116ac565b9050602081019050919050565b82818337600083830152505050565b600061178b61178684611738565b61171d565b9050828152602081018484840111156117a7576117a66116a7565b5b6117b2848285611769565b509392505050565b600082601f8301126117cf576117ce6116a2565b5b81356117df848260208601611778565b91505092915050565b6000602082840312156117fe576117fd611698565b5b600082013567ffffffffffffffff81111561181c5761181b61169d565b5b611828848285016117ba565b91505092915050565b600073ffffffffffffffffffffffffffffffffffffffff82169050919050565b600061185c82611831565b9050919050565b61186c81611851565b811461187757600080fd5b50565b60008135905061188981611863565b92915050565b6000602082840312156118a5576118a4611698565b5b60006118b38482850161187a565b91505092915050565b600081519050919050565b600082825260208201905092915050565b60005b838110156118f65780820151818401526020810190506118db565b60008484015250505050565b600061190d826118bc565b61191781856118c7565b93506119278185602086016118d8565b611930816116ac565b840191505092915050565b600060208201905081810360008301526119558184611902565b905092915050565b61196681611851565b82525050565b6000819050919050565b61197f8161196c565b82525050565b60008115159050919050565b61199a81611985565b82525050565b60006101208201905081810360008301526119bb818c611902565b905081810360208301526119cf818b611902565b905081810360408301526119e3818a611902565b90506119f2606083018961195d565b6119ff6080830188611976565b611a0c60a0830187611991565b81810360c0830152611a1e8186611902565b905081810360e0830152611a328185611902565b9050818103610100830152611a478184611902565b90509a9950505050505050505050565b611a608161196c565b8114611a6b57600080fd5b50565b600081359050611a7d81611a57565b92915050565b600060208284031215611a9957611a98611698565b5b6000611aa784828501611a6e565b91505092915050565b6000602082019050611ac56000830184611991565b92915050565b6000602082019050611ae06000830184611976565b92915050565b60006040820190508181036000830152611b008185611902565b9050611b0f6020830184611991565b9392505050565b60008060008060008060c08789031215611b3357611b32611698565b5b600087013567ffffffffffffffff811115611b5157611b5061169d565b5b611b5d89828a016117ba565b965050602087013567ffffffffffffffff811115611b7e57611b7d61169d565b5b611b8a89828a016117ba565b955050604087013567ffffffffffffffff811115611bab57611baa61169d565b5b611bb789828a016117ba565b945050606087013567ffffffffffffffff811115611bd857611bd761169d565b5b611be489828a016117ba565b935050608087013567ffffffffffffffff811115611c0557611c0461169d565b5b611c1189828a016117ba565b92505060a0611c2289828a0161187a565b9150509295509295509295565b60008060408385031215611c4657611c45611698565b5b600083013567ffffffffffffffff811115611c6457611c6361169d565b5b611c70858286016117ba565b9250506020611c818582860161187a565b9150509250929050565b60008060408385031215611ca257611ca1611698565b5b600083013567ffffffffffffffff811115611cc057611cbf61169d565b5b611ccc858286016117ba565b925050602083013567ffffffffffffffff811115611ced57611cec61169d565b5b611cf9858286016117ba565b9150509250929050565b6000610100820190508181036000830152611d1e818b611902565b90508181036020830152611d32818a611902565b90508181036040830152611d468189611902565b9050611d55606083018861195d565b611d626080830187611976565b81810360a0830152611d748186611902565b905081810360c0830152611d888185611902565b905081810360e0830152611d9c8184611902565b90509998505050505050505050565b7f5573657220616c7265616479207265676973746572656420616e64206163746960008201527f7665000000000000000000000000000000000000000000000000000000000000602082015250565b6000611e076022836118c7565b9150611e1282611dab565b604082019050919050565b60006020820190508181036000830152611e3681611dfa565b9050919050565b7f4e487b7100000000000000000000000000000000000000000000000000000000600052602260045260246000fd5b60006002820490506001821680611e8457607f821691505b602082108103611e9757611e96611e3d565b5b50919050565b60008190508160005260206000209050919050565b60006020601f8301049050919050565b600082821b905092915050565b600060088302611eff7fffffffffffffffffffffffffffffffffffffffffffffffffffffffffffffffff82611ec2565b611f098683611ec2565b95508019841693508086168417925050509392505050565b6000819050919050565b6000611f46611f41611f3c8461196c565b611f21565b61196c565b9050919050565b6000819050919050565b611f6083611f2b565b611f74611f6c82611f4d565b848454611ecf565b825550505050565b600090565b611f89611f7c565b611f94818484611f57565b505050565b5b81811015611fb857611fad600082611f81565b600181019050611f9a565b5050565b601f821115611ffd57611fce81611e9d565b611fd784611eb2565b81016020851015611fe6578190505b611ffa611ff285611eb2565b830182611f99565b50505b505050565b600082821c905092915050565b600061202060001984600802612002565b1980831691505092915050565b6000612039838361200f565b9150826002028217905092915050565b612052826118bc565b67ffffffffffffffff81111561206b5761206a6116bd565b5b6120758254611e6c565b612080828285611fbc565b600060209050601f8311600181146120b357600084156120a1578287015190505b6120ab858261202d565b865550612113565b601f1984166120c186611e9d565b60005b828110156120e9578489015182556001820191506020850194506020810190506120c4565b868310156121065784890151612102601f89168261200f565b8355505b6001600288020188555050505b505050505050565b600081905092915050565b6000612131826118bc565b61213b818561211b565b935061214b8185602086016118d8565b80840191505092915050565b60006121638284612126565b915081905092915050565b7f417373657420494420616c726561647920657869737473000000000000000000600082015250565b60006121a46017836118c7565b91506121af8261216e565b602082019050919050565b600060208201905081810360008301526121d381612197565b9050919050565b7f417373657420646f6573206e6f74206578697374000000000000000000000000600082015250565b60006122106014836118c7565b915061221b826121da565b602082019050919050565b6000602082019050818103600083015261223f81612203565b9050919050565b7f55736572206e6f742072656769737465726564206f7220616c7265616479207260008201527f65766f6b65640000000000000000000000000000000000000000000000000000602082015250565b60006122a26026836118c7565b91506122ad82612246565b604082019050919050565b600060208201905081810360008301526122d181612295565b9050919050565b7f4e6f74206f776e65720000000000000000000000000000000000000000000000600082015250565b600061230e6009836118c7565b9150612319826122d8565b602082019050919050565b6000602082019050818103600083015261233d81612301565b9050919050565b7f4173736574206e6f7420666f756e640000000000000000000000000000000000600082015250565b600061237a600f836118c7565b915061238582612344565b602082019050919050565b600060208201905081810360008301526123a98161236d565b905091905056fea2646970667358221220b58c5504c17cedc66c405bfd9aa8742975df1ff5aa1c656c11960f2fe74e964564736f6c63430008130033",
  "immutableReferences": {},
  "source": "// SPDX-License-Identifier: MIT\r\npragma solidity ^0.8.0;\r\n\r\n/**\r\n * @title AuthChain\r\n * @dev As described in the project specification.\r\n * This contract manages user identities for a passwordless authentication system.\r\n * It stores a public key (or metadata) and an active status for each user address.\r\n */\r\ncontract AuthChain {\r\n    struct User {\r\n        string publicKey; // Stores metadata, could be a real PEM public key\r\n        bool isActive;    // Status of the user\r\n    }\r\n\r\n    // Maps a user's Ethereum address to their User struct\r\n    mapping(address => User) public users;\r\n\r\n    /**\r\n     * @dev Registers a new user or re-registers an inactive user.\r\n     * The public key is provided as a string. This could be metadata\r\n     * or a full PEM-encoded public key.\r\n     * @param _publicKey The public key or metadata string to associate with the user.\r\n     */\r\n    function registerUser(string memory _publicKey) public {\r\n        // Require that the user is not already active.\r\n        // A user can re-register if they were previously revoked.\r\n        require(!users[msg.sender].isActive, \"User already registered and active\");\r\n        users[msg.sender] = User(_publicKey, true);\r\n    }\r\n\r\n    /**\r\n     * @dev Revokes a user's access.\r\n     * This can only be called by the user themselves, acting as a\r\n     * self-service \"disable account\" or \"revoke key\" function.\r\n     */\r\n    function revokeUser() public {\r\n        // Require that the user is currently registered and active.\r\n        require(users[msg.sender].isActive, \"User not registered or already revoked\");\r\n        users[msg.sender].isActive = false;\r\n    }\r\n\r\n    /**\r\n     * @dev Retrieves the stored public key string for a given user.\r\n     * @param _user The address of the user.\r\n     * @return string The public key or metadata string.\r\n     */\r\n    function getPublicKey(address _user) public view returns (string memory) {\r\n        return users[_user].publicKey;\r\n    }\r\n\r\n    /**\r\n     * @dev Checks if a user is registered and currently active.\r\n     * This is the primary function the backend will call.\r\n     * @param _user The address of the user to check.\r\n     * @return bool True if the user is active, false otherwise.\r\n     */\r\n    function isUserActive(address _user) public view returns (bool) {\r\n        return users[_user].isActive;\r\n    }\r\n\r\n    // --- ASSET MANAGEMENT ---\r\n    struct Asset {\r\n        string id;\r\n        string description;\r\n        string status;     // \"CLEAN\", \"STOLEN\"\r\n        address owner;\r\n        uint256 registeredAt;\r\n        bool exists;\r\n        string category;     // e.g. \"Electronics\"\r\n        string proofHash;    // SHA256 Hash of the uploaded proof document\r\n        string imageUrl;     // Path to stored image\r\n    }\r\n\r\n    mapping(string => Asset) public assets;\r\n    string[] public assetIds; // For listing (Prototype only)\r\n\r\n    event AssetRegistered(string indexed id, address indexed owner);\r\n    event AssetStatusChanged(string indexed id, string status);\r\n    event AssetTransfer(string indexed id, address indexed from, address indexed to, uint256 timestamp);\r\n\r\n    function registerAsset(string memory _id, string memory _desc, string memory _category, string memory _proofHash, string memory _imageUrl, address _owner) public {\r\n        require(!assets[_id].exists, \"Asset ID already exists\");\r\n        \r\n        assets[_id] = Asset(_id, _desc, \"CLEAN\", _owner, block.timestamp, true, _category, _proofHash, _imageUrl);\r\n        assetIds.push(_id);\r\n        \r\n        emit AssetRegistered(_id, _owner);\r\n        // Also emit a transfer from 0x0 to initial owner to start the chain\r\n        emit AssetTransfer(_id, address(0), _owner, block.timestamp);\r\n    }\r\n\r\n    function setAssetStatus(string memory _id, string memory _status) public {\r\n        require(assets[_id].exists, \"Asset does not exist\");\r\n        require(assets[_id].owner == msg.sender || assets[_id].owner == address(0), \"Not owner\"); \r\n        \r\n        assets[_id].status = _status;\r\n        emit AssetStatusChanged(_id, _status);\r\n    }\r\n\r\n    function transferAsset(string memory _id, address _newOwner) public {\r\n        require(assets[_id].exists, \"Asset does not exist\");\r\n        // Check current owner. In this Gov Node model, msg.sender is the Admin/Backend.\r\n        // The Admin is authorized to move assets IF the backend logic verified the user request.\r\n        // Ideally, we would check tx.origin or a signature here, but for this prototype:\r\n        // We TRUST the Admin (msg.sender) to only call this if Authorized.\r\n        \r\n        address currentOwner = assets[_id].owner;\r\n        assets[_id].owner = _newOwner;\r\n        \r\n        emit AssetTransfer(_id, currentOwner, _newOwner, block.timestamp);\r\n    }\r\n\r\n    function getAsset(string memory _id) public view returns (\r\n        string memory id,\r\n        string memory description,\r\n        string memory status,\r\n        address owner,\r\n        uint256 registeredAt,\r\n        string memory category,\r\n        string memory proofHash,\r\n        string memory imageUrl\r\n    ) {\r\n        require(assets[_id].exists, \"Asset not found\");\r\n        Asset memory a = assets[_id];\r\n        return (a.id, a.description, a.status, a.owner, a.registeredAt, a.category, a.proofHash, a.imageUrl);\r\n    }\r\n    \r\n    function getAssetCount() public view returns (uint256) {\r\n        return assetIds.length;\r\n    }\r\n}",
  "sourcePath": "C:\\authchain\\truffle\\contracts\\AuthChain.sol",
  "compiler": {
    "name": "solc",
    "version": "0.8.19+commit.7dd6d404.Emscripten.clang"
  },
  "schemaVersion": "3.4.16",
  "updatedAt": "2026-01-02T17:13:19.385Z",
  "devdoc": {
    "details": "As described in the project specification. This contract manages user identities for a passwordless authentication system. It stores a public key (or metadata) and an active status for each user address.",
    "kind": "dev",
    "methods": {
      "getPublicKey(address)": {
        "details": "Retrieves the stored public key string for a given user.",
        "params": {
          "_user": "The address of the user."
        },
        "returns": {
          "_0": "string The public key or metadata string."
        }
      },
      "isUserActive(address)": {
        "details": "Checks if a user is registered and currently active. This is the primary function the backend will call.",
        "params": {
          "_user": "The address of the user to check."
        },
        "returns": {
          "_0": "bool True if the user is active, false otherwise."
        }
      },
      "registerUser(string)": {
        "details": "Registers a new user or re-registers an inactive user. The public key is provided as a string. This could be metadata or a full PEM-encoded public key.",
        "params": {
          "_publicKey": "The public key or metadata string to associate with the user."
        }
      },
      "revokeUser()": {
        "details": "Revokes a user's access. This can only be called by the user themselves, acting as a self-service \"disable account\" or \"revoke key\" function."
      }
    },
    "title": "AuthChain",
    "version": 1
  },
  "userdoc": {
    "kind": "user",
    "methods": {},
    "version": 1
  }
}