{
  "contractName": "AuthChain",
  "abi": [
    {
      "inputs": [
        {
          "internalType": "address",
          "name": "",
          "type": "address"
        }
      ],
      "name": "users",
      "outputs": [
        {
          "internalType": "string",
          "name": "publicKey",
          "type": "string"
        },
        {
          "internalType": "bool",
          "name": "isActive",
          "type": "bool"
        }
      ],
      "stateMutability": "view",
      "type": "function",
      "constant": true
    },
    {
      "inputs": [
        {
          "internalType": "string",
          "name": "_publicKey",
          "type": "string"
        }
      ],
      "name": "registerUser",
      "outputs": [],
      "stateMutability": "nonpayable",
      "type": "function"
    },
    {
      "inputs": [],
      "name": "revokeUser",
      "outputs": [],
      "stateMutability": "nonpayable",
      "type": "function"
    },
    {
      "inputs": [
        {
          "internalType": "address",
          "name": "_user",
          "type": "address"
        }
      ],
      "name": "getPublicKey",
      "outputs": [
        {
          "internalType": "string",
          "name": "",
          "type": "string"
        }
      ],
      "stateMutability": "view",
      "type": "function",
      "constant": true
    },
    {
      "inputs": [
        {
          "internalType": "address",
          "name": "_user",
          "type": "address"
        }
      ],
      "name": "isUserActive",
      "outputs": [
        {
          "internalType": "bool",
          "name": "",
          "type": "bool"
        }
      ],
      "stateMutability": "view",
      "type": "function",
      "constant": true
    }
  ],
  "bytecode": "0x608060405234801561001057600080fd5b50610c79806100206000396000f3fe608060405234801561001057600080fd5b50600436106100575760003560e01c8063704f1b941461005c578063857cdbb8146100785780639ee20b15146100a8578063a87430ba146100d8578063bc9da48814610109575b600080fd5b6100766004803603810190610071919061065c565b610113565b005b610092600480360381019061008d9190610703565b610234565b60405161009f91906107af565b60405180910390f35b6100c260048036038101906100bd9190610703565b610307565b6040516100cf91906107ec565b60405180910390f35b6100f260048036038101906100ed9190610703565b61035f565b604051610100929190610807565b60405180910390f35b610111610418565b005b6000803373ffffffffffffffffffffffffffffffffffffffff1673ffffffffffffffffffffffffffffffffffffffff16815260200190815260200160002060010160009054906101000a900460ff16156101a2576040517f08c379a0000000000000000000000000000000000000000000000000000000008152600401610199906108a9565b60405180910390fd5b6040518060400160405280828152602001600115158152506000803373ffffffffffffffffffffffffffffffffffffffff1673ffffffffffffffffffffffffffffffffffffffff168152602001908152602001600020600082015181600001908161020d9190610adf565b5060208201518160010160006101000a81548160ff02191690831515021790555090505050565b60606000808373ffffffffffffffffffffffffffffffffffffffff1673ffffffffffffffffffffffffffffffffffffffff1681526020019081526020016000206000018054610282906108f8565b80601f01602080910402602001604051908101604052809291908181526020018280546102ae906108f8565b80156102fb5780601f106102d0576101008083540402835291602001916102fb565b820191906000526020600020905b8154815290600101906020018083116102de57829003601f168201915b50505050509050919050565b60008060008373ffffffffffffffffffffffffffffffffffffffff1673ffffffffffffffffffffffffffffffffffffffff16815260200190815260200160002060010160009054906101000a900460ff169050919050565b6000602052806000526040600020600091509050806000018054610382906108f8565b80601f01602080910402602001604051908101604052809291908181526020018280546103ae906108f8565b80156103fb5780601f106103d0576101008083540402835291602001916103fb565b820191906000526020600020905b8154815290600101906020018083116103de57829003601f168201915b5050505050908060010160009054906101000a900460ff16905082565b6000803373ffffffffffffffffffffffffffffffffffffffff1673ffffffffffffffffffffffffffffffffffffffff16815260200190815260200160002060010160009054906101000a900460ff166104a6576040517f08c379a000000000000000000000000000000000000000000000000000000000815260040161049d90610c23565b60405180910390fd5b60008060003373ffffffffffffffffffffffffffffffffffffffff1673ffffffffffffffffffffffffffffffffffffffff16815260200190815260200160002060010160006101000a81548160ff021916908315150217905550565b6000604051905090565b600080fd5b600080fd5b600080fd5b600080fd5b6000601f19601f8301169050919050565b7f4e487b7100000000000000000000000000000000000000000000000000000000600052604160045260246000fd5b61056982610520565b810181811067ffffffffffffffff8211171561058857610587610531565b5b80604052505050565b600061059b610502565b90506105a78282610560565b919050565b600067ffffffffffffffff8211156105c7576105c6610531565b5b6105d082610520565b9050602081019050919050565b82818337600083830152505050565b60006105ff6105fa846105ac565b610591565b90508281526020810184848401111561061b5761061a61051b565b5b6106268482856105dd565b509392505050565b600082601f83011261064357610642610516565b5b81356106538482602086016105ec565b91505092915050565b6000602082840312156106725761067161050c565b5b600082013567ffffffffffffffff8111156106905761068f610511565b5b61069c8482850161062e565b91505092915050565b600073ffffffffffffffffffffffffffffffffffffffff82169050919050565b60006106d0826106a5565b9050919050565b6106e0816106c5565b81146106eb57600080fd5b50565b6000813590506106fd816106d7565b92915050565b6000602082840312156107195761071861050c565b5b6000610727848285016106ee565b91505092915050565b600081519050919050565b600082825260208201905092915050565b60005b8381101561076a57808201518184015260208101905061074f565b60008484015250505050565b600061078182610730565b61078b818561073b565b935061079b81856020860161074c565b6107a481610520565b840191505092915050565b600060208201905081810360008301526107c98184610776565b905092915050565b60008115159050919050565b6107e6816107d1565b82525050565b600060208201905061080160008301846107dd565b92915050565b600060408201905081810360008301526108218185610776565b905061083060208301846107dd565b9392505050565b7f5573657220616c7265616479207265676973746572656420616e64206163746960008201527f7665000000000000000000000000000000000000000000000000000000000000602082015250565b600061089360228361073b565b915061089e82610837565b604082019050919050565b600060208201905081810360008301526108c281610886565b9050919050565b7f4e487b7100000000000000000000000000000000000000000000000000000000600052602260045260246000fd5b6000600282049050600182168061091057607f821691505b602082108103610923576109226108c9565b5b50919050565b60008190508160005260206000209050919050565b60006020601f8301049050919050565b600082821b905092915050565b60006008830261098b7fffffffffffffffffffffffffffffffffffffffffffffffffffffffffffffffff8261094e565b610995868361094e565b95508019841693508086168417925050509392505050565b6000819050919050565b6000819050919050565b60006109dc6109d76109d2846109ad565b6109b7565b6109ad565b9050919050565b6000819050919050565b6109f6836109c1565b610a0a610a02826109e3565b84845461095b565b825550505050565b600090565b610a1f610a12565b610a2a8184846109ed565b505050565b5b81811015610a4e57610a43600082610a17565b600181019050610a30565b5050565b601f821115610a9357610a6481610929565b610a6d8461093e565b81016020851015610a7c578190505b610a90610a888561093e565b830182610a2f565b50505b505050565b600082821c905092915050565b6000610ab660001984600802610a98565b1980831691505092915050565b6000610acf8383610aa5565b9150826002028217905092915050565b610ae882610730565b67ffffffffffffffff811115610b0157610b00610531565b5b610b0b82546108f8565b610b16828285610a52565b600060209050601f831160018114610b495760008415610b37578287015190505b610b418582610ac3565b865550610ba9565b601f198416610b5786610929565b60005b82811015610b7f57848901518255600182019150602085019450602081019050610b5a565b86831015610b9c5784890151610b98601f891682610aa5565b8355505b6001600288020188555050505b505050505050565b7f55736572206e6f742072656769737465726564206f7220616c7265616479207260008201527f65766f6b65640000000000000000000000000000000000000000000000000000602082015250565b6000610c0d60268361073b565b9150610c1882610bb1565b604082019050919050565b60006020820190508181036000830152610c3c81610c00565b905091905056fea26469706673582212205f8d35e2ef18b576deefa0b56d524bf0bd36536462ea93e2509bf3bee58db36164736f6c63430008130033",
  "immutableReferences": {},
  "source": "// SPDX-License-Identifier: MIT\r\npragma solidity ^0.8.0;\r\n\r\n/**\r\n * @title AuthChain\r\n * @dev As described in the project specification.\r\n * This contract manages user identities for a passwordless authentication system.\r\n * It stores a public key (or metadata) and an active status for each user address.\r\n */\r\ncontract AuthChain {\r\n    struct User {\r\n        string publicKey; // Stores metadata, could be a real PEM public key\r\n        bool isActive;    // Status of the user\r\n    }\r\n\r\n    // Maps a user's Ethereum address to their User struct\r\n    mapping(address => User) public users;\r\n\r\n    /**\r\n     * @dev Registers a new user or re-registers an inactive user.\r\n     * The public key is provided as a string. This could be metadata\r\n     * or a full PEM-encoded public key.\r\n     * @param _publicKey The public key or metadata string to associate with the user.\r\n     */\r\n    function registerUser(string memory _publicKey) public {\r\n        // Require that the user is not already active.\r\n        // A user can re-register if they were previously revoked.\r\n        require(!users[msg.sender].isActive, \"User already registered and active\");\r\n        users[msg.sender] = User(_publicKey, true);\r\n    }\r\n\r\n    /**\r\n     * @dev Revokes a user's access.\r\n     * This can only be called by the user themselves, acting as a\r\n     * self-service \"disable account\" or \"revoke key\" function.\r\n     */\r\n    function revokeUser() public {\r\n        // Require that the user is currently registered and active.\r\n        require(users[msg.sender].isActive, \"User not registered or already revoked\");\r\n        users[msg.sender].isActive = false;\r\n    }\r\n\r\n    /**\r\n     * @dev Retrieves the stored public key string for a given user.\r\n     * @param _user The address of the user.\r\n     * @return string The public key or metadata string.\r\n     */\r\n    function getPublicKey(address _user) public view returns (string memory) {\r\n        return users[_user].publicKey;\r\n    }\r\n\r\n    /**\r\n     * @dev Checks if a user is registered and currently active.\r\n     * This is the primary function the backend will call.\r\n     * @param _user The address of the user to check.\r\n     * @return bool True if the user is active, false otherwise.\r\n     */\r\n    function isUserActive(address _user) public view returns (bool) {\r\n        return users[_user].isActive;\r\n    }\r\n}",
  "sourcePath": "C:\\authchain\\truffle\\contracts\\AuthChain.sol",
  "compiler": {
    "name": "solc",
    "version": "0.8.19+commit.7dd6d404.Emscripten.clang"
  },
  "schemaVersion": "3.4.16",
  "updatedAt": "2025-11-08T08:28:07.392Z",
  "networkType": "ethereum",
  "devdoc": {
    "details": "As described in the project specification. This contract manages user identities for a passwordless authentication system. It stores a public key (or metadata) and an active status for each user address.",
    "kind": "dev",
    "methods": {
      "getPublicKey(address)": {
        "details": "Retrieves the stored public key string for a given user.",
        "params": {
          "_user": "The address of the user."
        },
        "returns": {
          "_0": "string The public key or metadata string."
        }
      },
      "isUserActive(address)": {
        "details": "Checks if a user is registered and currently active. This is the primary function the backend will call.",
        "params": {
          "_user": "The address of the user to check."
        },
        "returns": {
          "_0": "bool True if the user is active, false otherwise."
        }
      },
      "registerUser(string)": {
        "details": "Registers a new user or re-registers an inactive user. The public key is provided as a string. This could be metadata or a full PEM-encoded public key.",
        "params": {
          "_publicKey": "The public key or metadata string to associate with the user."
        }
      },
      "revokeUser()": {
        "details": "Revokes a user's access. This can only be called by the user themselves, acting as a self-service \"disable account\" or \"revoke key\" function."
      }
    },
    "title": "AuthChain",
    "version": 1
  },
  "userdoc": {
    "kind": "user",
    "methods": {},
    "version": 1
  }
}